:100000000C942A000C9436000C9434000C943400A8
:100010000C9434000C9434000C9434000C94340090
:100020000C9434000C9434000C9434000C94340080
:100030000C9434000C9434000C9434000C94340070
:100040000C9434000C9434000C9434000C94340060
:100050000C94340011241FBECFE5D8E0DEBFCDBF25
:100060000E9448000C9457000C9400001F920F92BD
:100070000FB60F9211248F939F9388B391E0892735
:1000800088BB9F918F910F900FBE0F901F90189576
:10009000B89AC0988A98929A85B7826085BF85B7CA
:1000A0008E7F85BF8BB780648BBF7894FFCFF89429
:0200B000FFCF80
:00000001FF
